:020000040800F2
:100000000028002075190008051900080B190008C0
:1000100011190008171900081D1900080000000038
:10002000000000000000000000000000231900088C
:100030002F190008000000003B19000847190008AC
:10004000BD190008BD190008BD190008BD19000838
:10005000BD190008BD190008BD190008BD19000828
:10006000BD190008BD190008BD190008BD19000818
:10007000BD190008BD190008BD190008BD19000808
:10008000BD190008BD190008BD190008BD190008F8
:10009000BD190008BD190008BD190008BD190008E8
:1000A000BD190008BD190008BD190008BD190008D8
:1000B00055190008BD19000800000000BD1900080E
:1000C000BD1900080000000000000000BD19000874
:1000D00000000000BD190008BD1900080000000064
:1000E000BD190008BD190008BD1900080000000076
:1000F0000000000000000000000000000000000000
:0C01000000000000000000005FF808F1A3
:10010C0010B5054C237833B9044B13B10448AFF345
:10011C0000800123237010BD54000020000000005B
:10012C00D42F000808B5034B1BB103490348AFF3A8
:10013C00008008BD0000000058000020D42F0008EB
:10014C0080B400AF034B01221A6000BFBD4680BCD7
:10015C00704700BF7000002080B400AF064B1B68D6
:10016C00012B04D1044B00221A60012300E0002370
:10017C001846BD4680BC70477000002080B400AFAC
:10018C00064B1B68012B04D1044B00221A6001237F
:10019C0000E000231846BD4680BC70477400002068
:1001AC0080B400AF064B1B68012B04D1044B00221A
:1001BC001A60012300E000231846BD4680BC70473E
:1001CC007800002080B400AF034B01221A6000BFFE
:1001DC00BD4680BC704700BF7400002080B400AFE7
:1001EC00034B01221A6000BFBD4680BC704700BFA4
:1001FC007800002080B500AF204B1B68204A1360AC
:10020C00204B1B681D4A13604FF400511E4801F02F
:10021C00BBFE03461A461B4B1A60194B1A68174B48
:10022C001B689A4228D1154B1A68164B1B689A42C8
:10023C0022D1164B1A68134B1B689A420AD0114BE9
:10024C001B68124A13600F4B1B68002B14D1FFF76D
:10025C0077FF11E00E4B1B68013B0D4A13600C4BF2
:10026C001B68002B08D10A4BC8221A60054B1B686F
:10027C00002B01D1FFF764FF00BF80BD04000020FC
:10028C000000002008000020001001400C0000209D
:10029C001000002080B500AF204B1B68204A136073
:1002AC00204B1B681D4A13604FF480411E4801F01F
:1002BC006BFE03461A461B4B1A60194B1A68174BF8
:1002CC001B689A4228D1154B1A68164B1B689A4228
:1002DC0022D1164B1A68134B1B689A420AD0114B49
:1002EC001B68124A13600F4B1B68002B14D1FFF7CD
:1002FC0069FF11E00E4B1B68013B0D4A13600C4B60
:10030C001B68002B08D10A4BC8221A60054B1B68CE
:10031C00002B01D1FFF756FF00BF80BD1800002055
:10032C00140000201C0000200010014020000020C0
:10033C002400002080B500AF204B1B68204A1360BE
:10034C00204B1B681D4A13604FF400411E4801F0FE
:10035C001BFE03461A461B4B1A60194B1A68174BA7
:10036C001B689A4228D1154B1A68164B1B689A4287
:10037C0022D1164B1A68134B1B689A420AD0114BA8
:10038C001B68124A13600F4B1B68002B14D1FFF72C
:10039C0025FF11E00E4B1B68013B0D4A13600C4B03
:1003AC001B68002B08D10A4BC8221A60054B1B682E
:1003BC00002B01D1FFF712FF00BF80BD2C000020E5
:1003CC0028000020300000200010014034000020E4
:1003DC003800002080B500AFFFF70CFFFFF75AFF85
:1003EC00FFF7A8FF00BF80BD80B500AFB44B1B6802
:1003FC00013B052B00F2598101A252F823F000BFFA
:10040C00250400089B04000823050008AB05000820
:10041C003106000845040008A94B06221A600A2080
:10042C0001F006F90A2001F03BF90A2001F01CF951
:10043C000A2001F051F941E101220221A14801F009
:10044C00BAFD012208219F4801F0B5FD01220421CB
:10045C009C4801F0B0FD012210219A4801F0ABFD3F
:10046C0001224021974801F0A6FD01222021954848
:10047C0001F0A1FD924B02221A60934B1B684FF4C2
:10048C007A7202FB03F3184601F0D2F816E100F081
:10049C0043FD00F083FD8D4B1B68012B0BD1884B6A
:1004AC0003221A608A4B1B684FF47A7202FB03F327
:1004BC00184601F0BDF8874B1B68012B08D1804B07
:1004CC001B68184600F056FE4FF47A7001F0E8F8FD
:1004DC00814B1B68012B14D1804B1B68184600F014
:1004EC00C5FD642001F0C0F87C4B1B68022B03DDBA
:1004FC007A4B00221A6004E0784B1B680133774A70
:10050C001360FFF729FE0346012B40F0D0806C4BA3
:10051C0007221A60CBE000F0FFFC00F06BFD6B4B88
:10052C001B68012B0BD1664B04221A60664B1B68AF
:10053C004FF47A7202FB03F3184601F079F8654B1D
:10054C001B68012B08D14FF47A7001F0A9F85C4BB1
:10055C001B68184600F00EFE5F4B1B68012B14D174
:10056C005E4B1B68184600F081FD642001F07CF89E
:10057C005A4B1B68022B03DD584B00221A6004E017
:10058C00564B1B680133554A1360FFF7E5FD0346D4
:10059C00012B40F08E804A4B07221A6089E000F054
:1005AC00E7FC00F0CFFC494B1B68012B0BD1444BF3
:1005BC0005221A60464B1B684FF47A7202FB03F358
:1005CC00184601F035F8434B1B68012B08D13C4B06
:1005DC001B68184600F0CEFD4FF47A7001F060F8FD
:1005EC003D4B1B68012B14D1642001F03DF83B4BB3
:1005FC001B68184600F03AFD384B1B68022B03DDD4
:10060C00364B00221A6004E0344B1B680133334A2A
:10061C001360FFF7A1FD0346012B4CD1284B072299
:10062C001A6048E000F0D0FC00F08CFC274B1B68F3
:10063C00012B0BD1224B02221A60234B1B684FF467
:10064C007A7202FB03F3184600F0F2FF214B1B6891
:10065C00012B08D14FF47A7001F022F8184B1B686B
:10066C00184600F087FD1C4B1B68012B14D164202D
:10067C0000F0FAFF194B1B68184600F0F7FC174BFB
:10068C001B68022B03DD154B00221A6004E0134B90
:10069C001B680133114A1360FFF75EFD0346012B03
:1006AC000BD1074B07221A6007E000BF06E000BF22
:1006BC0004E000BF02E000BF00E000BF00BF80BD4F
:1006CC0090000020000801403C000020B0000020F9
:1006DC0044000020C0000020B80000207C00002056
:1006EC0080B500AFA44B1B68073B0A2B00F2288295
:1006FC0001A252F823F000BF31070008710800086E
:10070C00E30900084D0B00084D0B0008F707000823
:10071C00B10A0008370900086B0700081D0A000819
:10072C00AB0800080C2000F07BFC944B00221A60F4
:10073C0000F0D6FD914B1B68184600F097FC4FF467
:10074C00FA7000F091FF4FF4FA7000F0A9FF01F07D
:10075C005DF801F06BF8884B0F221A60FBE1884BB7
:10076C001B68012B06D14FF4FA7000F099FF0C2096
:10077C0000F056FC834B1B68012B17D14FF4FA7019
:10078C0000F072FF00F0ACFD7C4B1B68184600F0CB
:10079C006DFC7A4B1B68022B03DD784B00221A6030
:1007AC0004E0764B1B680133744A1360FFF7D4FCEA
:1007BC000346012B02D1704B08221A60FFF7DEFCB6
:1007CC000346012B40F0BE816B4B0C221A606E4B22
:1007DC001B68632B03DD6C4B00221A60B2E16A4B81
:1007EC001B680133684A1360ACE1654B1B68012B35
:1007FC0006D14FF4FA7000F053FF0C2000F010FCFF
:10080C00604B1B68012B0AD14FF4FA7000F02CFFDF
:10081C0000F066FD594B1B68184600F027FCFFF7EB
:10082C00ADFC0346012B0ED1574B1B68622B05DD2B
:10083C00564B1B680133544A136004E0524B1B683F
:10084C000133514A1360FFF7ABFC0346012B09D16E
:10085C00494B0F221A604C4B1A684C4B1B68D31A2D
:10086C004B4A13600E2000F0DBFB444B00221A6055
:10087C0000F036FD414B1B68184600F0F7FB4FF4B7
:10088C00FA7000F0F1FE4FF4FA7000F009FF00F07E
:10089C00BDFF00F0CBFF384B11221A605BE1384BE7
:1008AC001B68012B06D14FF4FA7000F0F9FE0E20F4
:1008BC0000F0B6FB334B1B68012B17D14FF4FA70C9
:1008CC0000F0D2FE00F038FD2C4B1B68184600F0EF
:1008DC00CDFB2A4B1B68022B03DD284B00221A6030
:1008EC0004E0264B1B680133244A1360FFF734FCE9
:1008FC000346012B02D1204B09221A60FFF73EFC64
:10090C000346012B40F020811B4B0E221A601F4B1B
:10091C001B68042B03DD1D4B01221A6014E11B4BD9
:10092C001B680133194A13600EE1154B1B68012B30
:10093C0006D14FF4FA7000F0B3FE0E2000F070FBFD
:10094C00104B1B68012B0AD14FF4FA7000F08CFE8F
:10095C0000F0F2FC094B1B68184600F087FBFFF710
:10096C000DFC0346012B1AD1084B1B68042B11DD1F
:10097C00064B01221A6012E0900000207C0000203F
:10098C00C0000020B80000204000002044000020DF
:10099C003C000020714B1B680133704A1360FFF759
:1009AC00FFFB0346012B40F0D1806D4B11221A60E6
:1009BC006C4B1A68694B1B689A4204DC674B1B68CA
:1009CC000133684A1360674B1A68644B1B68D31A6F
:1009DC00654A1360BAE00D2000F022FB634B002245
:1009EC001A6000F07DFC614B1B68184600F03EFB62
:1009FC004FF4FA7000F038FE4FF4FA7000F050FE2D
:100A0C0000F004FF00F012FF554B10221A60A2E018
:100A1C00574B1B68012B06D14FF4FA7000F040FEC7
:100A2C000D2000F0FDFA534B1B68012B17D14FF42E
:100A3C00FA7000F019FE00F0ABFC4C4B1B6818462A
:100A4C0000F014FB494B1B68022B03DD474B0022C3
:100A5C001A6004E0454B1B680133444A1360FFF7EE
:100A6C007BFB0346012B02D13D4B01221A60FFF7A1
:100A7C0085FB0346012B6BD1394B0D221A60394B88
:100A8C001A68364B1B68D21A374B1B689A4203DC28
:100A9C00354B01221A605BE0334B1B680133324A41
:100AAC00136055E0324B1B68012B06D14FF4FA70E2
:100ABC0000F0F6FD0D2000F0B3FA2E4B1B68012B55
:100ACC0017D14FF4FA7000F0CFFD00F061FC274B0A
:100ADC001B68184600F0CAFA244B1B68022B03DD76
:100AEC00224B00221A6004E0204B1B6801331F4A82
:100AFC001360FFF743FB0346012B11D1194B1A6806
:100B0C00164B1B68D21A184B1B689A4203DC164B07
:100B1C0001221A6004E0144B1B680133124A136063
:100B2C00FFF73EFB0346012B14D10D4B10221A602C
:100B3C000D4B1A68094B1B6813440A4A136009E0F1
:100B4C0000BF08E000BF06E000BF04E000BF02E009
:100B5C0000BF00E000BF00BF80BD00BF440000200C
:100B6C0090000020400000203C0000207C00002071
:100B7C00C0000020B800002080B582B000AF7860C3
:100B8C007B68002B29D100224FF40071D34801F06F
:100B9C0012FA00224FF48061D04801F00CFA0022C6
:100BAC004FF40061CD4801F006FA00224FF4805159
:100BBC00CA4801F000FA00224FF40051C74801F076
:100BCC00FAF900224FF48041C44801F0F4F90122F3
:100BDC004FF40041C14801F0EEF97B68012B29D19B
:100BEC0001224FF40071BD4801F0E5F900224FF4E9
:100BFC008061BA4801F0DFF900224FF40061B74878
:100C0C0001F0D9F901224FF48051B44801F0D3F925
:100C1C0001224FF40051B14801F0CDF901224FF4FB
:100C2C008041AE4801F0C7F901224FF40041AB48B6
:100C3C0001F0C1F97B68022B29D100224FF400711D
:100C4C00A64801F0B8F900224FF48061A34801F0E6
:100C5C00B2F901224FF40061A04801F0ACF9002276
:100C6C004FF480519D4801F0A6F900224FF4005139
:100C7C009A4801F0A0F901224FF48041974801F005
:100C8C009AF900224FF40041944801F094F97B68E2
:100C9C00032B29D100224FF40071904801F08BF9FD
:100CAC0000224FF480618D4801F085F900224FF449
:100CBC0000618A4801F07FF900224FF48051874887
:100CCC0001F079F901224FF40051844801F073F9D5
:100CDC0001224FF48041814801F06DF900224FF45C
:100CEC0000417E4801F067F97B68042B29D1012271
:100CFC004FF40071794801F05EF900224FF48061E5
:100D0C00764801F058F900224FF40061734801F065
:100D1C0052F901224FF48051704801F04CF9012234
:100D2C004FF400516D4801F046F900224FF4804118
:100D3C006A4801F040F900224FF40041674801F085
:100D4C003AF97B68052B29D100224FF400716348D6
:100D5C0001F031F901224FF48061604801F02BF968
:100D6C0000224FF400615D4801F025F900224FF498
:100D7C0080515A4801F01FF901224FF40051574895
:100D8C0001F019F900224FF48041544801F013F995
:100D9C0000224FF40041514801F00DF97B68062BFD
:100DAC0029D100224FF400714C4801F004F90122C2
:100DBC004FF48061494801F0FEF800224FF40061C5
:100DCC00464801F0F8F800224FF48051434801F0F6
:100DDC00F2F800224FF40051404801F0ECF80022E8
:100DEC004FF480413D4801F0E6F800224FF40041F9
:100DFC003A4801F0E0F87B68072B29D100224FF428
:100E0C000071364801F0D7F800224FF48061334866
:100E1C0001F0D1F800224FF40061304801F0CBF81A
:100E2C0001224FF480512D4801F0C5F801224FF4F6
:100E3C0000512A4801F0BFF801224FF480412748A5
:100E4C0001F0B9F801224FF40041244801F0B3F845
:100E5C007B68082B29D100224FF400711F4801F048
:100E6C00AAF800224FF480611C4801F0A4F800227B
:100E7C004FF40061194801F09EF800224FF48051A4
:100E8C00164801F098F800224FF40051134801F075
:100E9C0092F800224FF48041104801F08CF80022A7
:100EAC004FF400410D4801F086F87B68092B2CD1DA
:100EBC0000224FF40071094801F07DF800224FF434
:100ECC008061064801F077F800224FF40061034876
:100EDC0001F071F800224FF4805101E0000801404C
:100EEC000C4801F068F801224FF40051094801F058
:100EFC0062F800224FF48041064801F05CF80022B1
:100F0C004FF40041034801F056F800BF0837BD46C6
:100F1C0080BD00BF0008014080B500AF0022022157
:100F2C00074801F048F801220821054801F043F870
:100F3C0001220421024801F03EF800BF80BD00BF31
:100F4C000008014080B500AF00221021074801F0D5
:100F5C0032F801224021054801F02DF80122202110
:100F6C00024801F028F800BF80BD00BF0008014016
:100F7C0080B500AF01220221074801F01CF80022C5
:100F8C000821054801F017F801220421024801F05C
:100F9C0012F800BF80BD00BF0008014080B500AF53
:100FAC0001221021074801F006F8002240210548D3
:100FBC0001F001F801222021024800F0FCFF00BFE3
:100FCC0080BD00BF0008014080B500AF01220221A6
:100FDC00074800F0F0FF01220821054800F0EBFF64
:100FEC0000220421024800F0E6FF00BF80BD00BFD4
:100FFC000008014080B500AF01221021074800F025
:10100C00DAFF01224021054800F0D5FF0022202103
:10101C00024800F0D0FF00BF80BD00BF00080140B7
:10102C0080B582B000AF78607B680E2B13D07B68E4
:10103C000E2B15DC7B680C2B03D07B680D2B05D09D
:10104C000EE0FFF769FFFFF77DFF0AE0FFF790FF67
:10105C00FFF7A4FF05E0FFF7B7FFFFF7CBFF00E0BA
:10106C0000BF00BF0837BD4680BD000080B582B010
:10107C0000AF78607B68032B72D801A252F823F082
:10108C009D100008D1100008051100083911000846
:10109C00364B1B681846FFF76FFD002201213448C0
:1010AC0000F089FF01220221314800F084FF012267
:1010BC0004212F4800F07FFF012208212C4800F06A
:1010CC007AFF4EE0294B5B681846FFF755FD01226D
:1010DC000121274800F06FFF00220221244800F074
:1010EC006AFF01220421224800F065FF0122082139
:1010FC001F4800F060FF34E01C4B9B681846FFF75C
:10110C003BFD012201211A4800F055FF012202216A
:10111C00174800F050FF00220421154800F04BFF47
:10112C0001220821124800F046FF1AE00F4BDB6841
:10113C001846FFF721FD012201210D4800F03BFF6D
:10114C00012202210A4800F036FF0122042108483E
:10115C0000F031FF00220821054800F02CFF00E0D0
:10116C0000BF00BF0837BD4680BD00BF9400002003
:10117C00000C014080B483B000AF78607B68023B08
:10118C00032B00F2958001A252F823F0A91100085C
:10119C00E1110008231200085B120008484B1A6882
:1011AC00484B1B68D31A484A1360474B1B68464A86
:1011BC009360464B1A68434B1B68D31A424A5360E0
:1011CC00414B5B68404AD3603E4B1B6801333D4A40
:1011DC00136070E03A4B1A683A4B1B68D31A3A4AC0
:1011EC001360394B1B68384A9360394B1A68394B7A
:1011FC001B68D31A344A5360334B5B68324AD36052
:10120C00304B1B6801332F4A1360324B1B68013380
:10121C00304A13604FE02D4B1A682F4B1B68D31AC2
:10122C00294A1360284B1B68274A9360244B1A6881
:10123C00294B1B68D31A244A5360234B5B68224A00
:10124C00D360254B1B680133234A136033E01C4BDE
:10125C001A68214B1B68D31A1B4A53601A4B5B68E4
:10126C00194AD3601A4B1A681C4B1B68D31A164ABE
:10127C001360154B1B68144A9360174B1B680133A2
:10128C00154A1360154B1B680133144A13600E4B3F
:10129C001B68012B0EDC0B4B00221A600D4B00223D
:1012AC001A600D4B00221A600C4B00221A6001E0F0
:1012BC0000BF00E000BF00BF0C37BD4680BC7047CC
:1012CC004000002080000020940000203C00002002
:1012DC004400002084000020880000208C000020A6
:1012EC0080B400AF114B02221A60104B02225A60DC
:1012FC000F4B1B680F4A82FB03129210DB17D31A99
:10130C000A4A93600A4B19680A4B83FB01239A1013
:10131C00CB17D21A13469B0013445B00CA1A034B1B
:10132C00DA6000BFBD4680BC704700BF940000204F
:10133C00400000206766666680B400AF114B032244
:10134C001A60104B03225A600F4B1B680F4A82FB2A
:10135C0003129210DB17D31A0A4A93600A4B1968CE
:10136C000A4B83FB01239A10CB17D21A13469B000E
:10137C0013445B00CA1A034BDA6000BFBD4680BC45
:10138C00704700BF9400002044000020676666662A
:10139C0080B400AF114B04221A60104B04225A6027
:1013AC000F4B1B680F4A82FB03129210DB17D31AE8
:1013BC000A4A93600A4B19680A4B83FB01239A1063
:1013CC00CB17D21A13469B0013445B00CA1A034B6B
:1013DC00DA6000BFBD4680BC704700BF940000209F
:1013EC003C0000206766666680B500AF00F0E2FA4C
:1013FC0000F014F800F09AF800F04CF8054801F0F1
:10140C001FFA054B01221A60FFF76AF9FEF7ECFF91
:10141C00FAE700BFD40000209000002080B590B007
:10142C0000AF07F1180328220021184601F0C4FD73
:10143C003B1D00221A605A609A60DA601A6102231E
:10144C00BB610123BB621023FB6200237B6307F1AA
:10145C001803184600F0C8FD0346002B01D000F01D
:10146C00E1F80F237B600023BB600023FB600023AB
:10147C003B6100237B613B1D0021184601F034F8D1
:10148C000346002B01D000F0CDF800BF4037BD461D
:10149C0080BD000080B586B000AF07F108030022C4
:1014AC001A605A609A60DA603B4600221A605A60F1
:1014BC001D4B4FF080421A601B4B41F63F725A6035
:1014CC00194B00229A60184B0922DA60164B002245
:1014DC001A61154B00229A61134801F061F9034619
:1014EC00002B01D000F09EF84FF48053BB6007F145
:1014FC00080319460C4801F0F7FA0346002B01D0FB
:10150C0000F090F800233B6000237B603B461946BB
:10151C00054801F0C3FC0346002B01D000F082F813
:10152C0000BF1837BD4680BDD400002080B588B000
:10153C0000AF07F1100300221A605A609A60DA605B
:10154C002E4B9B692D4A43F0100393612B4B9B69E7
:10155C0003F01003FB60FB68284B9B69274A43F0A0
:10156C0004039361254B9B6903F00403BB60BB68C8
:10157C00224B9B69214A43F0080393611F4B9B69E3
:10158C0003F008037B607B6800224FF67E611C48E9
:10159C0000F011FD00220F211A4800F00CFD4FF451
:1015AC0060433B6100237B610123BB6107F11003A6
:1015BC001946154800F06EFB4FF67E633B61012324
:1015CC007B610023BB610223FB6107F11003194609
:1015DC000B4800F05FFB0F233B6101237B61002371
:1015EC00BB610223FB6107F110031946054800F0AB
:1015FC0051FB00BF2037BD4680BD00BF001002402C
:10160C0000080140000C01400010014080B582B080
:10161C0000AF786000F07CF8FEF7DCFE00BF083706
:10162C00BD4680BD80B400AF72B600BFFEE70000BF
:10163C0080B483B000AF78607B68084A82FB0312E9
:10164C009210DB17D31A064A1360064B00221A605D
:10165C0000BF0C37BD4680BC704700BF676666662E
:10166C00AC000020B000002080B483B000AF7860E4
:10167C007B68084A82FB03129210DB17D31A064AC6
:10168C001360064B00221A6000BF0C37BD4680BCAD
:10169C00704700BF67666666B4000020B800002083
:1016AC0080B483B000AF78607B68084A82FB031279
:1016BC009210DB17D31A064A1360064B00221A60ED
:1016CC0000BF0C37BD4680BC704700BF67666666BE
:1016DC00BC000020C000002080B483B000AF786054
:1016EC007B68084A82FB03129210DB17D31A064A56
:1016FC001360064B00221A6000BF0C37BD4680BC3D
:10170C00704700BF67666666C4000020C8000020F2
:10171C0080B400AF314B1B68002B0BDD2F4B1B68CB
:10172C00013B2E4A13602D4B1B68002B02DC2C4B0B
:10173C0001221A602B4B1B68002B0BDD294B1B68FD
:10174C00013B284A1360274B1B68002B02DC264BFD
:10175C0001221A60254B1B68002B0BDD234B1B68E9
:10176C00013B224A1360214B1B68002B02DC204BEF
:10177C0001221A601F4B1B68002B0BDD1D4B1B68D5
:10178C00013B1C4A13601B4B1B68002B02DC1A4BE1
:10179C0001221A60194B1B68002B0BDD174B1B68C1
:1017AC00013B164A1360154B1B68002B02DC144BD3
:1017BC0001221A60134B1B68002B0BDD114B1B68AD
:1017CC00013B104A13600F4B1B68002B02DC0E4BC5
:1017DC0001221A6000BFBD4680BC7047A4000020E7
:1017EC00A8000020AC000020B0000020B4000020B5
:1017FC00B8000020BC000020C0000020C400002065
:10180C00C8000020CC000020D000002080B400AF25
:10181C00044B00221A60044B00221A6000BFBD4624
:10182C0080BC7047A8000020A400002080B400AF4A
:10183C00044B00221A60044B00221A6000BFBD4604
:10184C0080BC7047B0000020AC00002080B485B094
:10185C0000AF154B9B69144A43F001039361124B83
:10186C009B6903F00103BB60BB680F4BDB690E4A3D
:10187C0043F08053D3610C4BDB6903F080537B60E6
:10188C007B680A4B5B68FB60FB6823F0E063FB60E2
:10189C00FB6843F08063FB60044AFB68536000BF45
:1018AC001437BD4680BC7047001002400000014058
:1018BC0080B584B000AF78607B681B68B3F1804F53
:1018CC0013D10C4BDB690B4A43F00103D361094B79
:1018DC00DB6903F00103FB60FB68002200211C2084
:1018EC0000F0A1F91C2000F0BAF900BF1037BD467A
:1018FC0080BD00BF0010024080B400AFFEE780B492
:10190C0000AFFEE780B400AFFEE780B400AFFEE7A7
:10191C0080B400AFFEE780B400AF00BFBD4680BC12
:10192C00704780B400AF00BFBD4680BC704780B428
:10193C0000AF00BFBD4680BC704780B500AF00F063
:10194C007FF800BF80BD000080B500AF024800F0FA
:10195C00C3FF00BF80BD00BFD400002080B400AF27
:10196C0000BFBD4680BC7047FFF7F8FF0B480C4921
:10197C000C4A002302E0D458C4500433C4188C42DF
:10198C00F9D3094A094C002301E013600432A24246
:10199C00FBD301F0EDFAFFF727FD704700000020A4
:1019AC0054000020183000085400002020010020B2
:1019BC00FEE7000080B500AF084B1B68074A43F0F8
:1019CC0010031360032000F023F90F2000F008F837
:1019DC00FFF73CFF0023184680BD00BF00200240EB
:1019EC0080B582B000AF7860124B1A68124B1B782E
:1019FC0019464FF47A73B3FBF1F3B2FBF3F31846C9
:101A0C0000F03BF90346002B01D001230EE07B686C
:101A1C000F2B0AD8002279684FF0FF3000F003F941
:101A2C00064A7B681360002300E001231846083740
:101A3C00BD4680BD48000020500000204C00002016
:101A4C0080B400AF054B1B781A46054B1B6813443A
:101A5C00034A136000BFBD4680BC70475000002095
:101A6C001C01002080B400AF024B1B681846BD4619
:101A7C0080BC70471C01002080B485B000AF78603A
:101A8C007B6803F00703FB600C4BDB68BB60BA6838
:101A9C004FF6FF031340BB60FB681A02BB6813438D
:101AAC0043F0BF6343F40033BB60044ABB68D360AC
:101ABC0000BF1437BD4680BC704700BF00ED00E08E
:101ACC0080B400AF044BDB681B0A03F00703184615
:101ADC00BD4680BC704700BF00ED00E080B483B011
:101AEC0000AF0346FB7197F90730002B0BDBFB793A
:101AFC0003F01F02064997F907305B09012000FA31
:101B0C0002F241F8232000BF0C37BD4680BC704761
:101B1C0000E100E080B483B000AF03463960FB7194
:101B2C0097F90730002B0ADB3B68DAB20C4997F9BE
:101B3C0007301201D2B20B4483F800230AE03B6851
:101B4C00DAB20849FB7903F00F03043B1201D2B25D
:101B5C000B441A7600BF0C37BD4680BC704700BFE3
:101B6C0000E100E000ED00E080B489B000AFF86067
:101B7C00B9607A60FB6803F00703FB61FB69C3F192
:101B8C000703042B28BF0423BB61FB690433062B1A
:101B9C0002D9FB69033B00E000237B614FF0FF326D
:101BAC00BB6902FA03F3DA43BB681A407B699A40BB
:101BBC004FF0FF317B6901FA03F3D9437B680B408B
:101BCC00134318462437BD4680BC704780B582B09D
:101BDC0000AF78607B68013BB3F1807F01D30123B8
:101BEC000FE00A4A7B68013B53600F214FF0FF3036
:101BFC00FFF790FF054B00229A60044B07221A60F6
:101C0C00002318460837BD4680BD00BF10E000E039
:101C1C0080B582B000AF78607868FFF72DFF00BF09
:101C2C000837BD4680BD80B586B000AF0346B960AD
:101C3C007A60FB7300237B61FFF742FF78617A685F
:101C4C00B9687869FFF790FF024697F90F30114693
:101C5C001846FFF75FFF00BF1837BD4680BD80B543
:101C6C0082B000AF0346FB7197F907301846FFF7B7
:101C7C0035FF00BF0837BD4680BD80B582B000AFD0
:101C8C0078607868FFF7A2FF034618460837BD4610
:101C9C0080BD000080B48BB000AF78603960002349
:101CAC007B6200233B6248E101227B6A02FA03F368
:101CBC00FB613B681B68FA691340BB61BA69FB693D
:101CCC009A4240F037813B685B68A34A93425ED0EE
:101CDC00A14A934275D8A14A934258D09F4A934245
:101CEC006FD89F4A934252D09D4A934269D89D4ADD
:101CFC0093424CD09B4A934263D89B4A934246D022
:101D0C00994A93425DD8122B2AD8122B59D801A28A
:101D1C0052F823F09B1D0008751D0008871D000854
:101D2C00C91D0008CF1D0008CF1D0008CF1D0008DD
:101D3C00CF1D0008CF1D0008CF1D0008CF1D0008C7
:101D4C00CF1D0008CF1D0008CF1D0008CF1D0008B7
:101D5C00CF1D0008CF1D00087D1D0008911D000837
:101D6C00824A934213D02CE03B68DB683B6229E04B
:101D7C003B68DB6804333B6224E03B68DB68083378
:101D8C003B621FE03B68DB680C333B621AE03B684C
:101D9C009B68002B02D104233B6213E03B689B68D9
:101DAC00012B05D108233B627B68FA691A6109E0B3
:101DBC0008233B627B68FA695A6103E000233B62AB
:101DCC0000E000BFBB69FF2B01D87B6801E07B689A
:101DDC0004337B61BB69FF2B02D87B6A9B0002E05A
:101DEC007B6A083B9B003B617B691A680F213B694E
:101DFC0001FA03F3DB431A40396A3B6901FA03F336
:101E0C001A437B691A603B685B6803F08053002BB4
:101E1C0000F09080564B9B69554A43F00103936147
:101E2C00534B9B6903F00103BB60BB68514A7B6A4F
:101E3C009B08023352F82330FB607B6A03F00303E8
:101E4C009B000F2202FA03F3DB43FA681340FB609A
:101E5C007B68494A93420DD07B68484A934207D02D
:101E6C007B68474A934201D1022304E0032302E03A
:101E7C00012300E000237A6A02F0030292009340EF
:101E8C00FA681343FB603B497B6A9B080233FA6890
:101E9C0041F823203B685B6803F48013002B06D0C9
:101EAC00384B9A683749BB6913438B6006E0354B56
:101EBC009A68BB69DB43334913408B603B685B68B2
:101ECC0003F40013002B06D02E4BDA682D49BB69A6
:101EDC001343CB6006E02B4BDA68BB69DB43294923
:101EEC001340CB603B685B6803F40033002B06D0D7
:101EFC00244B5A682349BB6913434B6006E0214BC2
:101F0C005A68BB69DB431F4913404B603B685B68F5
:101F1C0003F48033002B06D01A4B1A681949BB699D
:101F2C0013430B6006E0174B1A68BB69DB4315497A
:101F3C0013400B607B6A01337B623B681A687B6AD7
:101F4C0022FA03F3002B7FF4AFAE00BF00BF2C3797
:101F5C00BD4680BC704700BF00003210000031103D
:101F6C0000002210000021100000121000001110BF
:101F7C00001002400000014000080140000C01402C
:101F8C00001001400004014080B485B000AF7860BF
:101F9C000B467B807B689A687B881340002B02D0B1
:101FAC000123FB7301E00023FB73FB7B1846143702
:101FBC00BD4680BC704780B483B000AF78600B46E0
:101FCC007B8013467B707B78002B03D07A887B68F0
:101FDC001A6103E07B881A047B681A6100BF0C3716
:101FEC00BD4680BC7047000080B586B000AF7860FD
:101FFC007B68002B01D101236CE27B681B6803F02A
:10200C000103002B00F08780924B5B6803F00C03FC
:10201C00042B0CD08F4B5B6803F00C03082B12D1F4
:10202C008C4B5B6803F48033B3F5803F0BD1894B49
:10203C001B6803F40033002B6CD07B685B68002BAF
:10204C0068D1012346E27B685B68B3F5803F06D11B
:10205C00804B1B687F4A43F4803313602EE07B680F
:10206C005B68002B0CD17B4B1B687A4A23F48033C2
:10207C001360784B1B68774A23F4802313601DE0B0
:10208C007B685B68B3F5A02F0CD1724B1B68714A4F
:10209C0043F4802313606F4B1B686E4A43F4803308
:1020AC0013600BE06B4B1B686A4A23F4803313609C
:1020BC00684B1B68674A23F4802313607B685B685A
:1020CC00002B13D0FFF7CEFC386108E0FFF7CAFCF9
:1020DC0002463B69D31A642B01D90323FAE15D4B09
:1020EC001B6803F40033002BF0D014E0FFF7BAFCAC
:1020FC00386108E0FFF7B6FC02463B69D31A642B43
:10210C0001D90323E6E1534B1B6803F40033002B86
:10211C00F0D100E000BF7B681B6803F00203002BCA
:10212C0063D04C4B5B6803F00C03002B0BD0494B7A
:10213C005B6803F00C03082B1CD1464B5B6803F463
:10214C008033002B16D1434B1B6803F00203002B8A
:10215C0005D07B681B69012B01D00123BAE13D4BF3
:10216C001B6823F0F8027B685B69DB003949134379
:10217C000B603AE07B681B69002B20D0364B0122A8
:10218C001A60FFF76FFC386108E0FFF76BFC024642
:10219C003B69D31A022B01D903239BE12D4B1B68FE
:1021AC0003F00203002BF0D02A4B1B6823F0F8023B
:1021BC007B685B69DB00274913430B6015E0264BFA
:1021CC0000221A60FFF74EFC386108E0FFF74AFC6A
:1021DC0002463B69D31A022B01D903237AE11D4B2A
:1021EC001B6803F00203002BF0D17B681B6803F023
:1021FC000803002B3AD07B689B69002B19D0174B36
:10220C0001221A60FFF72EFC386108E0FFF72AFC68
:10221C0002463B69D31A022B01D903235AE10D4B19
:10222C005B6A03F00203002BF0D0012000F09AFA55
:10223C001CE00A4B00221A60FFF714FC38610FE017
:10224C00FFF710FC02463B69D31A022B08D9032373
:10225C0040E100BF001002400000424280044242B4
:10226C009E4B5B6A03F00203002BE9D17B681B6871
:10227C0003F00403002B00F0A6800023FB75974BA2
:10228C00DB6903F08053002B0DD1944BDB69934A2F
:10229C0043F08053D361914BDB6903F08053BB60F7
:1022AC00BB680123FB758E4B1B6803F48073002BFA
:1022BC0018D18B4B1B688A4A43F480731360FFF769
:1022CC00D1FB386108E0FFF7CDFB02463B69D31A1E
:1022DC00642B01D90323FDE0814B1B6803F480734D
:1022EC00002BF0D07B68DB68012B06D17B4B1B6A83
:1022FC007A4A43F0010313622DE07B68DB68002B04
:10230C000CD1764B1B6A754A23F001031362734B95
:10231C001B6A724A23F0040313621CE07B68DB68BF
:10232C00052B0CD16D4B1B6A6C4A43F004031362F2
:10233C006A4B1B6A694A43F0010313620BE0674B5B
:10234C001B6A664A23F001031362644B1B6A634ADF
:10235C0023F0040313627B68DB68002B15D0FFF7B6
:10236C0081FB38610AE0FFF77DFB02463B69D31A1B
:10237C0041F28832934201D90323ABE0574B1B6ADD
:10238C0003F00203002BEED014E0FFF76BFB386177
:10239C000AE0FFF767FB02463B69D31A41F2883229
:1023AC00934201D9032395E04C4B1B6A03F00203C3
:1023BC00002BEED1FB7D012B05D1484BDB69474A45
:1023CC0023F08053D3617B68DB69002B00F08180A4
:1023DC00424B5B6803F00C03082B61D07B68DB6914
:1023EC00022B46D13F4B00221A60FFF73BFB3861B2
:1023FC0008E0FFF737FB02463B69D31A022B01D9E1
:10240C00032367E0354B1B6803F00073002BF0D1FE
:10241C007B681B6AB3F5803F08D1304B5B6823F4B3
:10242C0000327B689B682D4913434B602B4B5B68D8
:10243C0023F474127B68196A7B685B6A0B43274927
:10244C0013434B60274B01221A60FFF70BFB3861DB
:10245C0008E0FFF707FB02463B69D31A022B01D9B0
:10246C00032337E01D4B1B6803F00073002BF0D0E7
:10247C002FE01C4B00221A60FFF7F4FA386108E0D9
:10248C00FFF7F0FA02463B69D31A022B01D903235A
:10249C0020E0124B1B6803F00073002BF0D118E006
:1024AC007B68DB69012B01D1012313E00B4B5B68CB
:1024BC00FB60FB6803F480327B681B6A9A4206D18E
:1024CC00FB6803F470127B685B6A9A4201D00123AB
:1024DC0000E0002318461837BD4680BD00100240AE
:1024EC00007000406000424280B584B000AF78605C
:1024FC0039607B68002B01D10123D0E06A4B1B684B
:10250C0003F007033A689A4210D9674B1B6823F013
:10251C00070265493B6813430B60634B1B6803F070
:10252C0007033A689A4201D00123B8E07B681B6824
:10253C0003F00203002B20D07B681B6803F004031C
:10254C00002B05D0594B5B68584A43F4E063536049
:10255C007B681B6803F00803002B05D0534B5B68AA
:10256C00524A43F460535360504B5B6823F0F002C3
:10257C007B689B684D4913434B607B681B6803F079
:10258C000103002B40D07B685B68012B07D1474BC4
:10259C001B6803F40033002B15D101237FE07B680B
:1025AC005B68022B07D1414B1B6803F00073002BB7
:1025BC0009D1012373E03D4B1B6803F00203002B90
:1025CC0001D101236BE0394B5B6823F003027B687C
:1025DC005B68364913434B60FFF744FAF8600AE036
:1025EC00FFF740FA0246FB68D31A41F28832934255
:1025FC0001D9032353E02D4B5B6803F00C027B687D
:10260C005B689B009A42EBD1274B1B6803F00703D6
:10261C003A689A4210D2244B1B6823F007022249D5
:10262C003B6813430B60204B1B6803F007033A68AD
:10263C009A4201D0012332E07B681B6803F004034B
:10264C00002B08D0194B5B6823F4E0627B68DB68D5
:10265C00164913434B607B681B6803F00803002B7F
:10266C0009D0124B5B6823F460527B681B69DB005A
:10267C000E4913434B6000F021F802460B4B5B688C
:10268C001B0903F00F030A49CB5C22FA03F3094A36
:10269C001360094B1B681846FFF7A2F90023184674
:1026AC001037BD4680BD00BF002002400010024024
:1026BC00EC2F0008480000204C00002080B487B0AC
:1026CC0000AF0023FB600023BB6000237B61002371
:1026DC007B6000233B611E4B5B68FB60FB6803F077
:1026EC000C03042B02D0082B03D027E0194B3B61C1
:1026FC0027E0FB689B0C03F00F03174AD35C7B604D
:10270C00FB6803F48033002B10D0114B5B685B0C1F
:10271C0003F00103114AD35CBB607B680D4A02FBDA
:10272C0003F2BB68B2FBF3F37B6104E07B680C4AF9
:10273C0002FB03F37B617B693B6102E0054B3B6170
:10274C0000BF3B6918461C37BD4680BC704700BFB4
:10275C000010024000127A00FC2F00080C30000818
:10276C0000093D0080B485B000AF78600A4B1B684F
:10277C000A4AA2FB03235B0A7A6802FB03F3FB60A1
:10278C0000BFFB685A1EFA60002BF9D100BF00BFD6
:10279C001437BD4680BC704748000020D34D6210F2
:1027AC0080B582B000AF78607B68002B01D101232B
:1027BC0041E07B6893F83D30DBB2002B06D17B689F
:1027CC00002283F83C207868FFF772F87B680222BD
:1027DC0083F83D207B681A687B68043319461046E1
:1027EC0000F06EFA7B68012283F846207B68012298
:1027FC0083F83E207B68012283F83F207B6801220E
:10280C0083F840207B68012283F841207B680122F9
:10281C0083F842207B68012283F843207B680122E5
:10282C0083F844207B68012283F845207B680122D1
:10283C0083F83D20002318460837BD4680BD0000B4
:10284C0080B485B000AF78607B6893F83D30DBB224
:10285C00012B01D0012335E07B68022283F83D2057
:10286C007B681B68DA687B681B6842F00102DA60DF
:10287C007B681B68164A934209D07B681B68B3F1CE
:10288C00804F04D07B681B68124A934211D17B683D
:10289C001B689B6803F00703FB60FB68062B10D0DA
:1028AC007B681B681A687B681B6842F001021A601F
:1028BC0007E07B681B681A687B681B6842F00102A2
:1028CC001A60002318461437BD4680BC704700BF01
:1028DC00002C01400004004080B582B000AF78604D
:1028EC007B681B681B6903F00203022B22D17B68F7
:1028FC001B68DB6803F00203022B1BD17B681B688F
:10290C006FF002021A617B6801221A777B681B68E0
:10291C009B6903F00303002B03D0786800F0B4F933
:10292C0005E0786800F0A7F9786800F0B6F97B68E4
:10293C0000221A777B681B681B6903F00403042BC5
:10294C0022D17B681B68DB6803F00403042B1BD1CA
:10295C007B681B686FF004021A617B6802221A778D
:10296C007B681B689B6903F44073002B03D0786869
:10297C0000F08AF905E0786800F07DF9786800F0DD
:10298C008CF97B6800221A777B681B681B6903F043
:10299C000803082B22D17B681B68DB6803F0080353
:1029AC00082B1BD17B681B686FF008021A617B68CF
:1029BC0004221A777B681B68DB6903F00303002B86
:1029CC0003D0786800F060F905E0786800F053F9FE
:1029DC00786800F062F97B6800221A777B681B68C4
:1029EC001B6903F01003102B22D17B681B68DB687A
:1029FC0003F01003102B1BD17B681B686FF01002C7
:102A0C001A617B6808221A777B681B68DB6903F400
:102A1C004073002B03D0786800F036F905E0786835
:102A2C0000F029F9786800F038F97B6800221A77F1
:102A3C007B681B681B6903F00103012B0ED17B68BB
:102A4C001B68DB6803F00103012B07D17B681B6853
:102A5C006FF001021A617868FEF7D8FD7B681B687D
:102A6C001B6903F08003802B0ED17B681B68DB682D
:102A7C0003F08003802B07D17B681B686FF080020A
:102A8C001A61786800F06BFA7B681B681B6903F0AD
:102A9C004003402B0ED17B681B68DB6803F04003BE
:102AAC00402B07D17B681B686FF040021A61786875
:102ABC0000F0FCF87B681B681B6903F02003202BDB
:102ACC000ED17B681B68DB6803F02003202B07D139
:102ADC007B681B686FF020021A61786800F036FA88
:102AEC0000BF0837BD4680BD80B584B000AF7860AC
:102AFC0039600023FB737B6893F83C30012B01D1C8
:102B0C000223B4E07B68012283F83C207B6802221C
:102B1C0083F83D207B681B689B68BB60BB6823F017
:102B2C007703BB60BB6823F47F43BB607B681B6887
:102B3C00BA689A603B681B68B3F5005F3ED0B3F58A
:102B4C00005F00F28780B3F5805F00F08680B3F5FC
:102B5C00805F7FD8702B1AD0702B7BD8602B50D015
:102B6C00602B77D8502B3CD0502B73D8402B58D09F
:102B7C00402B6FD8302B64D0302B6BD8202B60D0EF
:102B8C00202B67D8002B5CD0102B5AD062E07B68CE
:102B9C0018683B6899683B685A683B68DB6800F0CA
:102BAC005EF97B681B689B68BB60BB6843F077036E
:102BBC00BB607B681B68BA689A604FE07B681868DA
:102BCC003B6899683B685A683B68DB6800F047F9DA
:102BDC007B681B689A687B681B6842F480429A6029
:102BEC003CE07B6818683B6859683B68DB681A46B0
:102BFC0000F0BEF87B681B685021184600F015F9F0
:102C0C002CE07B6818683B6859683B68DB681A469F
:102C1C0000F0DCF87B681B686021184600F005F9B1
:102C2C001CE07B6818683B6859683B68DB681A468F
:102C3C0000F09EF87B681B684021184600F0F5F800
:102C4C000CE07B681A683B681B681946104600F05C
:102C5C00ECF803E00123FB7300E000BF7B6801226A
:102C6C0083F83D207B68002283F83C20FB7B1846D0
:102C7C001037BD4680BD80B483B000AF786000BF14
:102C8C000C37BD4680BC704780B483B000AF786011
:102C9C0000BF0C37BD4680BC704780B483B000AF1A
:102CAC00786000BF0C37BD4680BC704780B483B0E1
:102CBC0000AF786000BF0C37BD4680BC7047000089
:102CCC0080B485B000AF786039607B681B68FB60AE
:102CDC007B68254A934207D07B68B3F1804F03D0C1
:102CEC007B68224A934208D1FB6823F07003FB6097
:102CFC003B685B68FA681343FB607B681A4A934233
:102D0C0007D07B68B3F1804F03D07B68174A93429E
:102D1C0008D1FB6823F44073FB603B68DB68FA68FE
:102D2C001343FB60FB6823F080023B685B69134331
:102D3C00FB607B68FA681A603B689A687B68DA62A9
:102D4C003B681A687B689A627B68074A934203D196
:102D5C003B681A697B681A637B6801225A6100BF61
:102D6C001437BD4680BC7047002C01400004004065
:102D7C0080B487B000AFF860B9607A60FB681B6AFA
:102D8C007B61FB681B6A23F00102FB681A62FB681B
:102D9C009B693B613B6923F0F0033B617B681B0142
:102DAC003A6913433B617B6923F00A037B617A69BF
:102DBC00BB6813437B61FB683A699A61FB687A696B
:102DCC001A6200BF1C37BD4680BC704780B487B008
:102DDC0000AFF860B9607A60FB681B6A7B61FB68C6
:102DEC001B6A23F01002FB681A62FB689B693B614B
:102DFC003B6923F470433B617B681B033A691343C3
:102E0C003B617B6923F0A0037B61BB681B017A6982
:102E1C0013437B61FB683A699A61FB687A691A62B1
:102E2C0000BF1C37BD4680BC704780B485B000AF76
:102E3C00786039607B689B68FB60FB6823F07003EB
:102E4C00FB603A68FB68134343F00703FB607B6845
:102E5C00FA689A6000BF1437BD4680BC704780B4D6
:102E6C0087B000AFF860B9607A603B60FB689B6824
:102E7C007B617B6923F47F437B613B681A027B682F
:102E8C001A43BB6813437A6913437B61FB687A6905
:102E9C009A6000BF1C37BD4680BC704780B485B0BB
:102EAC0000AF786039607B6893F83C30012B01D11E
:102EBC00022341E07B68012283F83C207B680222DC
:102ECC0083F83D207B681B685B68FB607B681B6834
:102EDC009B68BB60FB6823F07003FB603B681B685E
:102EEC00FA681343FB607B681B68FA685A607B685E
:102EFC001B68144A934209D07B681B68B3F1804F5E
:102F0C0004D07B681B68104A93420CD1BB6823F039
:102F1C008003BB603B685B68BA681343BB607B682B
:102F2C001B68BA689A607B68012283F83D207B6835
:102F3C00002283F83C20002318461437BD4680BC81
:102F4C00704700BF002C01400004004080B483B0E7
:102F5C0000AF786000BF0C37BD4680BC704780B4B2
:102F6C0083B000AF786000BF0C37BD4680BC7047A3
:102F7C0070B500260C4D0D4C641BA410A64209D153
:102F8C0000F022F800260A4D0A4C641BA410A6423D
:102F9C0005D170BD55F8043B98470136EEE755F85E
:102FAC00043B98470136F2E7103000081030000857
:102FBC00103000081430000803460244934200D13C
:102FCC00704703F8011BF9E7F8B500BFF8BC08BC63
:102FDC009E467047F8B500BFF8BC08BC9E467047CB
:102FEC0000000000000000000102030406070809AD
:102FFC0002030405060708090A0B0C0D0E0F10102E
:04300C0001020000BD
:043010003101000882
:043014000D010008A2
:1030180001000000010000000100000001000000A4
:10302800F4010000010000000100000001000000A0
:1030380001000000F4010000010000000100000090
:103048000100000001000000F4010000030000007E
:1030580005000000020000000024F4001000000039
:043068000100000063
:040000050800197561
:00000001FF
