:020000040800F2
:100000000028002059180008E9170008EF17000819
:10001000F5170008FB170008011800080000000091
:1000200000000000000000000000000007180008A9
:1000300013180008000000001F1800082B18000803
:10004000A1180008A1180008A1180008A1180008AC
:10005000A1180008A1180008A1180008A11800089C
:10006000A1180008A1180008A1180008A11800088C
:10007000A1180008A1180008A1180008A11800087C
:10008000A1180008A1180008A1180008A11800086C
:10009000A1180008A1180008A1180008A11800085C
:1000A000A1180008A1180008A1180008A11800084C
:1000B00039180008A118000800000000A118000865
:1000C000A11800080000000000000000A1180008AE
:1000D00000000000A1180008A1180008000000009E
:1000E000A1180008A1180008A118000800000000CD
:1000F0000000000000000000000000000000000000
:0C01000000000000000000005FF808F1A3
:10010C0010B5054C237833B9044B13B10448AFF345
:10011C0000800123237010BD54000020000000005B
:10012C00B82E000808B5034B1BB103490348AFF3C5
:10013C00008008BD0000000058000020B82E000808
:10014C0080B400AF034B01221A6000BFBD4680BCD7
:10015C00704700BF7000002080B400AF064B1B68D6
:10016C00012B04D1044B00221A60012300E0002370
:10017C001846BD4680BC70477000002080B400AFAC
:10018C00064B1B68012B04D1044B00221A6001237F
:10019C0000E000231846BD4680BC70477400002068
:1001AC0080B400AF064B1B68012B04D1044B00221A
:1001BC001A60012300E000231846BD4680BC70473E
:1001CC007800002080B400AF034B01221A6000BFFE
:1001DC00BD4680BC704700BF7400002080B400AFE7
:1001EC00034B01221A6000BFBD4680BC704700BFA4
:1001FC007800002080B500AF204B1B68204A1360AC
:10020C00204B1B681D4A13604FF400511E4801F02F
:10021C002DFE03461A461B4B1A60194B1A68174BD6
:10022C001B689A4228D1154B1A68164B1B689A42C8
:10023C0022D1164B1A68134B1B689A420AD0114BE9
:10024C001B68124A13600F4B1B68002B14D1FFF76D
:10025C0077FF11E00E4B1B68013B0D4A13600C4BF2
:10026C001B68002B08D10A4BC8221A60054B1B686F
:10027C00002B01D1FFF764FF00BF80BD04000020FC
:10028C000000002008000020001001400C0000209D
:10029C001000002080B500AF204B1B68204A136073
:1002AC00204B1B681D4A13604FF480411E4801F01F
:1002BC00DDFD03461A461B4B1A60194B1A68174B87
:1002CC001B689A4228D1154B1A68164B1B689A4228
:1002DC0022D1164B1A68134B1B689A420AD0114B49
:1002EC001B68124A13600F4B1B68002B14D1FFF7CD
:1002FC0069FF11E00E4B1B68013B0D4A13600C4B60
:10030C001B68002B08D10A4BC8221A60054B1B68CE
:10031C00002B01D1FFF756FF00BF80BD1800002055
:10032C00140000201C0000200010014020000020C0
:10033C002400002080B500AF204B1B68204A1360BE
:10034C00204B1B681D4A13604FF400411E4801F0FE
:10035C008DFD03461A461B4B1A60194B1A68174B36
:10036C001B689A4228D1154B1A68164B1B689A4287
:10037C0022D1164B1A68134B1B689A420AD0114BA8
:10038C001B68124A13600F4B1B68002B14D1FFF72C
:10039C0025FF11E00E4B1B68013B0D4A13600C4B03
:1003AC001B68002B08D10A4BC8221A60054B1B682E
:1003BC00002B01D1FFF712FF00BF80BD2C000020E5
:1003CC0028000020300000200010014034000020E4
:1003DC003800002080B500AFFFF70CFFFFF75AFF85
:1003EC00FFF7A8FF00BF80BD80B500AF974B1B681F
:1003FC00013B052B00F21E8101A252F823F000BF35
:10040C00250400088F040008FD0400086905000895
:10041C00D5050008690400088C4B06221A600022DE
:10042C0002218B4801F039FD00220821884801F097
:10043C0034FD00220421864801F02FFD00221021FA
:10044C00834801F02AFD00224021814801F025FD5E
:10045C00002220217E4801F020FDF4E07B4B02229B
:10046C001A607C4B1B684FF47A7202FB03F318463C
:10047C0001F050F80A2001F069F80A2001F082F826
:10048C00E1E000F0ADFC00F0EDFC734B1B68012BC0
:10049C000BD16E4B03221A60704B1B684FF47A72AF
:1004AC0002FB03F3184601F035F86D4B1B68012B6A
:1004BC0008D1664B1B68184600F0CEFD4FF47A70DD
:1004CC0001F044F8674B1B68012B07D1664B1B6886
:1004DC00184600F02FFD642001F054F8FFF73CFEA5
:1004EC000346012B40F0A880584B07221A60A3E06A
:1004FC0000F076FC00F0E2FC574B1B68012B0BD193
:10050C00524B04221A60534B1B684FF47A7202FB55
:10051C0003F3184600F0FEFF514B1B68012B08D16A
:10052C004FF47A7001F012F8484B1B68184600F033
:10053C0093FD4C4B1B68012B07D14B4B1B6818468A
:10054C0000F0F8FC642001F01DF8FFF705FE0346EF
:10055C00012B73D13D4B07221A606FE000F06CFC4D
:10056C0000F054FC3C4B1B68012B0BD1374B052284
:10057C001A603A4B1B684FF47A7202FB03F318466D
:10058C0000F0C8FF364B1B68012B08D12F4B1B68A2
:10059C00184600F061FD4FF47A7000F0D7FF314B34
:1005AC001B68012B07D1642000F0ECFF2E4B1B685D
:1005BC00184600F0BFFCFFF7CFFD0346012B3FD1DF
:1005CC00224B07221A603BE000F062FC00F01EFC9C
:1005DC00214B1B68012B0BD11C4B02221A601D4BAB
:1005EC001B684FF47A7202FB03F3184600F092FF7B
:1005FC001B4B1B68012B08D14FF47A7000F0A6FF3F
:10060C00124B1B68184600F027FD164B1B68012B7C
:10061C0007D1642000F0B6FF134B1B68184600F09E
:10062C0089FCFFF799FD0346012B0BD1074B0722E1
:10063C001A6007E000BF06E000BF04E000BF02E064
:10064C0000BF00E000BF00BF80BD00BF90000020D5
:10065C00000801403C000020A800002044000020BD
:10066C00B0000020B80000207C00002080B500AF56
:10067C00AA4B1B68073B0A2B00F2C58101A252F85A
:10068C0023F000BFBD060008CD070008EF080008E6
:10069C00130A0008130A00084F0700089B090008FA
:1006AC005F080008F706000845090008070800085D
:1006BC000C2000F019FC9A4B00221A6000F082FD0D
:1006CC00974B1B68184600F035FC4FF4FA7000F09D
:1006DC0059FF4FF4FA7000F071FF01F009F801F0C6
:1006EC0017F88E4B0F221A609AE18E4B1B68012B68
:1006FC0006D14FF4FA7000F061FF0C2000F0F4FB0F
:10070C00894B1B68012B0AD14FF4FA7000F03AFFA9
:10071C0000F058FD824B1B68184600F00BFCFFF7ED
:10072C001BFD0346012B02D17C4B08221A60FFF7FC
:10073C0025FD0346012B40F06881784B0C221A6092
:10074C0063E1784B1B68012B06D14FF4FA7000F073
:10075C0035FF0C2000F0C8FB734B1B68012B0AD132
:10076C004FF4FA7000F00EFF00F02CFD6C4B1B6880
:10077C00184600F0DFFBFFF701FD0346012B0ED1FD
:10078C006A4B1B68622B05DD694B1B680133674A9A
:10079C00136004E0654B1B680133644A1360FFF778
:1007AC00FFFC0346012B40F032815C4B0F221A6098
:1007BC005E4B1A685E4B1B68D31A5E4A136026E1C7
:1007CC000E2000F091FB564B00221A6000F0FAFC50
:1007DC00534B1B68184600F0ADFB4FF4FA7000F059
:1007EC00D1FE4FF4FA7000F0E9FE00F081FF00F04A
:1007FC008FFF4A4B11221A6012E14A4B1B68012BE6
:10080C0006D14FF4FA7000F0D9FE0E2000F06CFB0C
:10081C00454B1B68012B0AD14FF4FA7000F0B2FE65
:10082C0000F0FCFC3E4B1B68184600F083FBFFF706
:10083C0093FC0346012B02D1384B09221A60FFF7B7
:10084C009DFC0346012B40F0E480344B0E221A60D1
:10085C00DFE0344B1B68012B06D14FF4FA7000F02B
:10086C00ADFE0E2000F040FB2F4B1B68012B0AD174
:10087C004FF4FA7000F086FE00F0D0FC284B1B6899
:10088C00184600F057FBFFF779FC0346012B0CD1FF
:10089C00274B1B68622B03DD254B01221A6004E0F9
:1008AC00234B1B680133224A1360FFF779FC034684
:1008BC00012B40F0B080194B11221A601B4B1A68A7
:1008CC001B4B1B689A4204DC194B1B680133174AFB
:1008DC001360164B1A68164B1B68D31A154A136013
:1008EC0099E00D2000F000FB0D4B00221A6000F087
:1008FC0069FC0B4B1B68184600F01CFB4FF4FA709C
:10090C0000F040FE4FF4FA7000F058FE00F0F0FEDC
:10091C0000F0FEFE014B10221A6081E090000020D6
:10092C007C000020C0000020B80000204000002007
:10093C00440000203C0000203A4B1B68012B06D1E0
:10094C004FF4FA7000F03AFE0D2000F0CDFA364B61
:10095C001B68012B0AD14FF4FA7000F013FE00F063
:10096C0089FC324B1B68184600F0E4FAFFF7F4FBE5
:10097C000346012B02D12E4B06221A60FFF7FEFB19
:10098C000346012B49D12A4B0D221A6045E0254B19
:10099C001B68012B06D14FF4FA7000F00FFE0D20EE
:1009AC0000F0A2FA204B1B68012B0AD14FF4FA700D
:1009BC0000F0E8FD00F05EFC1C4B1B68184600F0D4
:1009CC00B9FAFFF7DBFB0346012B0CD1194B1B6863
:1009DC00622B03DD174B01221A6004E0154B1B68D8
:1009EC000133144A1360FFF7DBFB0346012B16D1CE
:1009FC000F4B10221A600F4B1A680F4B1B681344D5
:100A0C000E4A13600BE000BF0AE000BF08E000BF15
:100A1C0006E000BF04E000BF02E000BF00E000BF42
:100A2C0000BF80BDC0000020B80000207C0000206A
:100A3C00900000203C0000204400002040000020DA
:100A4C0080B582B000AF78607B68002B29D1002282
:100A5C004FF40071D34801F020FA00224FF480616A
:100A6C00D04801F01AFA00224FF40061CD4801F091
:100A7C0014FA00224FF48051CA4801F00EFA0022F9
:100A8C004FF40051C74801F008FA00224FF480419E
:100A9C00C44801F002FA01224FF40041C14801F0B0
:100AAC00FCF97B68012B29D101224FF40071BD4860
:100ABC0001F0F3F900224FF48061BA4801F0EDF92E
:100ACC0000224FF40061B74801F0E7F901224FF41E
:100ADC008051B44801F0E1F901224FF40051B148C2
:100AEC0001F0DBF901224FF48041AE4801F0D5F959
:100AFC0001224FF40041AB4801F0CFF97B68022B87
:100B0C0029D100224FF40071A64801F0C6F9002249
:100B1C004FF48061A34801F0C0F901224FF4006149
:100B2C00A04801F0BAF900224FF480519D4801F021
:100B3C00B4F900224FF400519A4801F0AEF90122A9
:100B4C004FF48041974801F0A8F900224FF400417E
:100B5C00944801F0A2F97B68032B29D100224FF4B1
:100B6C000071904801F099F900224FF480618D4892
:100B7C0001F093F900224FF400618A4801F08DF9DD
:100B8C0000224FF48051874801F087F901224FF47D
:100B9C000051844801F081F901224FF480418148D1
:100BAC0001F07BF900224FF400417E4801F075F909
:100BBC007B68042B29D101224FF40071794801F094
:100BCC006CF900224FF48061764801F066F900223E
:100BDC004FF40061734801F060F901224FF4805129
:100BEC00704801F05AF901224FF400516D4801F0A0
:100BFC0054F900224FF480416A4801F04EF900226A
:100C0C004FF40041674801F048F97B68052B29D166
:100C1C0000224FF40071634801F03FF901224FF4B8
:100C2C008061604801F039F900224FF400615D48A1
:100C3C0001F033F900224FF480515A4801F02DF99C
:100C4C0001224FF40051574801F027F900224FF4CC
:100C5C008041544801F021F900224FF400415148E1
:100C6C0001F01BF97B68062B29D100224FF400718F
:100C7C004C4801F012F901224FF48061494801F00F
:100C8C000CF900224FF40061464801F006F90022ED
:100C9C004FF48051434801F000F900224FF4005109
:100CAC00404801F0FAF800224FF480413D4801F031
:100CBC00F4F800224FF400413A4801F0EEF87B685A
:100CCC00072B29D100224FF40071364801F0E5F8CA
:100CDC0000224FF48061334801F0DFF800224FF41A
:100CEC000061304801F0D9F801224FF480512D48B1
:100CFC0001F0D3F801224FF400512A4801F0CDF84D
:100D0C0001224FF48041274801F0C7F801224FF42B
:100D1C000041244801F0C1F87B68082B29D100223E
:100D2C004FF400711F4801F0B8F800224FF48061B5
:100D3C001C4801F0B2F800224FF40061194801F090
:100D4C00ACF800224FF48051164801F0A6F80022AE
:100D5C004FF40051134801F0A0F800224FF48041E9
:100D6C00104801F09AF800224FF400410D4801F0B0
:100D7C0094F87B68092B2CD100224FF400710948A0
:100D8C0001F08BF800224FF48061064801F085F8E1
:100D9C0000224FF40061034801F07FF800224FF469
:100DAC00805101E0000801400C4801F076F8012266
:100DBC004FF40051094801F070F800224FF48041C3
:100DCC00064801F06AF800224FF40041034801F094
:100DDC0064F800BF0837BD4680BD00BF0008014065
:100DEC0080B500AF00220221074801F056F801221D
:100DFC000821054801F051F801220421024801F0B4
:100E0C004CF800BF80BD00BF0008014080B500AFAA
:100E1C0000221021074801F040F80122402105482A
:100E2C0001F03BF801222021024801F036F800BF06
:100E3C0080BD00BF0008014080B500AF0122022137
:100E4C00074801F02AF800220821054801F025F88E
:100E5C0001220421024801F020F800BF80BD00BF30
:100E6C000008014080B500AF01221021074801F0B5
:100E7C0014F800224021054801F00FF8012220212E
:100E8C00024801F00AF800BF80BD00BF0008014015
:100E9C0080B500AF01220221074800F0FEFF0122BD
:100EAC000821054800F0F9FF00220421024800F057
:100EBC00F4FF00BF80BD00BF0008014080B500AF4B
:100ECC0001221021074800F0E8FF012240210548CB
:100EDC0000F0E3FF00222021024800F0DEFF00BFFB
:100EEC0080BD00BF0008014080B582B000AF7860C3
:100EFC007B680E2B13D07B680E2B15DC7B680C2BC0
:100F0C0003D07B680D2B05D00EE0FFF769FFFFF7D0
:100F1C007DFF0AE0FFF790FFFFF7A4FF05E0FFF766
:100F2C00B7FFFFF7CBFF00E000BF00BF0837BD469F
:100F3C0080BD000080B582B000AF78607B681B6814
:100F4C00032B73D801A252F823F000BF690F0008DD
:100F5C009D0F0008D10F0008051000083C4B1B68C2
:100F6C001846FFF76DFD002201213A4800F095FF6D
:100F7C0001220221374800F090FF0122042135485C
:100F8C0000F08BFF01220821324800F086FF4EE072
:100F9C002F4B5B681846FFF753FD012201212D48AA
:100FAC0000F07BFF002202212A4800F076FF01228C
:100FBC000421284800F071FF01220821254800F087
:100FCC006CFF34E0224B9B681846FFF739FD012279
:100FDC000121204800F061FF012202211D4800F090
:100FEC005CFF002204211B4800F057FF012208215E
:100FFC00184800F052FF1AE0154BDB681846FFF753
:10100C001FFD01220121134800F047FF012202219C
:10101C00104800F042FF012204210E4800F03DFF71
:10102C00002208210B4800F038FF00E000BF7B686D
:10103C001B68022B03DD7B6800221A6004E07B68CE
:10104C001B685A1C7B681A6000BF0837BD4680BD00
:10105C0094000020000C014080B483B000AF786095
:10106C007B68023B032B00F2958001A252F823F01F
:10107C008D100008C5100008071100083F1100086A
:10108C00484B1A68484B1B68D31A484A1360474BA5
:10109C001B68464A9360464B1A68434B1B68D31A2D
:1010AC00424A5360414B5B68404AD3603E4B1B68DD
:1010BC0001333D4A136070E03A4B1A683A4B1B6897
:1010CC00D31A3A4A1360394B1B68384A9360394B30
:1010DC001A68394B1B68D31A344A5360334B5B681C
:1010EC00324AD360304B1B6801332F4A1360324BAA
:1010FC001B680133304A13604FE02D4B1A682F4B9D
:10110C001B68D31A294A1360284B1B68274A936023
:10111C00244B1A68294B1B68D31A244A5360234B5F
:10112C005B68224AD360254B1B680133234A13604A
:10113C0033E01C4B1A68214B1B68D31A1B4A5360B3
:10114C001A4B5B68194AD3601A4B1A681C4B1B6804
:10115C00D31A164A1360154B1B68144A9360174B2D
:10116C001B680133154A1360154B1B680133144A75
:10117C0013600E4B1B68012B0EDC0B4B00221A600C
:10118C000D4B00221A600D4B00221A600C4B0022F2
:10119C001A6001E000BF00E000BF00BF0C37BD4685
:1011AC0080BC70474000002080000020940000208C
:1011BC003C00002044000020840000208800002017
:1011CC008C00002080B400AF114B02221A60104B2F
:1011DC0002225A600F4B1B680F4A82FB03129210BB
:1011EC00DB17D31A0A4A93600A4B19680A4B83FB24
:1011FC0001239A10CB17D21A13469B0013445B00A1
:10120C00CA1A034BDA6000BFBD4680BC704700BFF2
:10121C0094000020400000206766666680B400AF32
:10122C00114B03221A60104B03225A600F4B1B68A0
:10123C000F4A82FB03129210DB17D31A0A4A9360EF
:10124C000A4B19680A4B83FB01239A10CB17D21A4D
:10125C0013469B0013445B00CA1A034BDA6000BFB1
:10126C00BD4680BC704700BF9400002044000020A5
:10127C006766666680B400AF114B04221A60104B8F
:10128C0004225A600F4B1B680F4A82FB0312921008
:10129C00DB17D31A0A4A93600A4B19680A4B83FB73
:1012AC0001239A10CB17D21A13469B0013445B00F0
:1012BC00CA1A034BDA6000BFBD4680BC704700BF42
:1012CC00940000203C0000206766666680B500AF85
:1012DC0000F0E2FA00F014F800F09AF800F04CF884
:1012EC00054801F01FFA054B01221A60FFF7BEF901
:1012FC00FFF77AF8FAE700BFD40000209000002036
:10130C0080B590B000AF07F11803282200211846D1
:10131C0001F0C4FD3B1D00221A605A609A60DA602D
:10132C001A610223BB610123BB621023FB62002301
:10133C007B6307F11803184600F0C8FD0346002B29
:10134C0001D000F0E1F80F237B600023BB60002389
:10135C00FB6000233B6100237B613B1D0021184691
:10136C0001F034F80346002B01D000F0CDF800BF9B
:10137C004037BD4680BD000080B586B000AF07F198
:10138C00080300221A605A609A60DA603B46002219
:10139C001A605A601D4B4FF080421A601B4B41F68D
:1013AC003F725A60194B00229A60184B0922DA607E
:1013BC00164B00221A61154B00229A61134801F05A
:1013CC0061F90346002B01D000F09EF84FF48053D6
:1013DC00BB6007F1080319460C4801F0F7FA034605
:1013EC00002B01D000F090F800233B6000237B60C1
:1013FC003B461946054801F0C3FC0346002B01D0BF
:10140C0000F082F800BF1837BD4680BDD400002024
:10141C0080B588B000AF07F1100300221A605A6043
:10142C009A60DA602E4B9B692D4A43F0100393614E
:10143C002B4B9B6903F01003FB60FB68284B9B69EB
:10144C00274A43F004039361254B9B6903F0040383
:10145C00BB60BB68224B9B69214A43F00803936134
:10146C001F4B9B6903F008037B607B6800224FF6DF
:10147C007E611C4800F011FD00220F211A4800F07B
:10148C000CFD4FF460433B6100237B610123BB6186
:10149C0007F110031946154800F06EFB4FF67E63FA
:1014AC003B6101237B610023BB610223FB6107F1DC
:1014BC00100319460B4800F05FFB0F233B6101231F
:1014CC007B610023BB610223FB6107F1100319460A
:1014DC00054800F051FB00BF2037BD4680BD00BF62
:1014EC000010024000080140000C014000100140B7
:1014FC0080B582B000AF786000F07CF8FEF76AFF30
:10150C0000BF0837BD4680BD80B400AF72B600BFC7
:10151C00FEE7000080B483B000AF78607B68084AB7
:10152C0082FB03129210DB17D31A064A1360064B88
:10153C0000221A6000BF0C37BD4680BC704700BF4C
:10154C0067666666A4000020A800002080B483B003
:10155C0000AF78607B68084A82FB03129210DB179D
:10156C00D31A064A1360064B00221A6000BF0C37D0
:10157C00BD4680BC704700BF67666666AC00002045
:10158C00B000002080B483B000AF78607B68084A5C
:10159C0082FB03129210DB17D31A064A1360064B18
:1015AC0000221A6000BF0C37BD4680BC704700BFDC
:1015BC0067666666B4000020B800002080B483B073
:1015CC0000AF78607B68084A82FB03129210DB172D
:1015DC00D31A064A1360064B00221A6000BF0C3760
:1015EC00BD4680BC704700BF67666666BC000020C5
:1015FC00C000002080B400AF314B1B68002B0BDD0A
:10160C002F4B1B68013B2E4A13602D4B1B68002B84
:10161C0002DC2C4B01221A602B4B1B68002B0BDDC0
:10162C00294B1B68013B284A1360274B1B68002B76
:10163C0002DC264B01221A60254B1B68002B0BDDAC
:10164C00234B1B68013B224A1360214B1B68002B68
:10165C0002DC204B01221A601F4B1B68002B0BDD98
:10166C001D4B1B68013B1C4A13601B4B1B68002B5A
:10167C0002DC1A4B01221A60194B1B68002B0BDD84
:10168C00174B1B68013B164A1360154B1B68002B4C
:10169C0002DC144B01221A60134B1B68002B0BDD70
:1016AC00114B1B68013B104A13600F4B1B68002B3E
:1016BC0002DC0E4B01221A6000BFBD4680BC704795
:1016CC00A4000020A8000020AC000020B0000020E6
:1016DC00B4000020B8000020BC000020C000002096
:1016EC00C4000020C8000020CC000020D000002046
:1016FC0080B400AF044B00221A60044B00221A6025
:10170C0000BFBD4680BC7047A8000020A40000208C
:10171C0080B400AF044B00221A60044B00221A6004
:10172C0000BFBD4680BC7047B0000020AC0000205C
:10173C0080B485B000AF154B9B69144A43F001038C
:10174C009361124B9B6903F00103BB60BB680F4BA9
:10175C00DB690E4A43F08053D3610C4BDB6903F019
:10176C0080537B607B680A4B5B68FB60FB6823F0F3
:10177C00E063FB60FB6843F08063FB60044AFB683A
:10178C00536000BF1437BD4680BC70470010024048
:10179C000000014080B584B000AF78607B681B68A6
:1017AC00B3F1804F13D10C4BDB690B4A43F00103AF
:1017BC00D361094BDB6903F00103FB60FB6800227A
:1017CC0000211C2000F0A1F91C2000F0BAF900BF88
:1017DC001037BD4680BD00BF0010024080B400AF82
:1017EC00FEE780B400AFFEE780B400AFFEE780B444
:1017FC0000AFFEE780B400AFFEE780B400AF00BFDF
:10180C00BD4680BC704780B400AF00BFBD4680BCF5
:10181C00704780B400AF00BFBD4680BC704780B538
:10182C0000AF00F07FF800BF80BD000080B500AFB6
:10183C00024800F0C3FF00BF80BD00BFD4000020F1
:10184C0080B400AF00BFBD4680BC7047FFF7F8FF07
:10185C000B480C490C4A002302E0D458C450043302
:10186C00C4188C42F9D3094A094C002301E01360D7
:10187C000432A242FBD301F0EDFAFFF727FD7047CB
:10188C000000002054000020FC2E00085400002012
:10189C0020010020FEE7000080B500AF084B1B685C
:1018AC00074A43F010031360032000F023F90F20C4
:1018BC0000F008F8FFF73CFF0023184680BD00BF7E
:1018CC000020024080B582B000AF7860124B1A68DD
:1018DC00124B1B7819464FF47A73B3FBF1F3B2FB3E
:1018EC00F3F3184600F03BF90346002B01D001231B
:1018FC000EE07B680F2B0AD8002279684FF0FF307E
:10190C0000F003F9064A7B681360002300E0012312
:10191C0018460837BD4680BD480000205000002006
:10192C004C00002080B400AF054B1B781A46054BC9
:10193C001B681344034A136000BFBD4680BC70474C
:10194C00500000201C01002080B400AF024B1B682B
:10195C001846BD4680BC70471C01002080B485B081
:10196C0000AF78607B6803F00703FB600C4BDB680F
:10197C00BB60BA684FF6FF031340BB60FB681A02EA
:10198C00BB68134343F0BF6343F40033BB60044AAA
:10199C00BB68D36000BF1437BD4680BC704700BF26
:1019AC0000ED00E080B400AF044BDB681B0A03F0D1
:1019BC0007031846BD4680BC704700BF00ED00E031
:1019CC0080B483B000AF0346FB7197F90730002B4E
:1019DC000BDBFB7903F01F02064997F907305B0913
:1019EC00012000FA02F241F8232000BF0C37BD465B
:1019FC0080BC704700E100E080B483B000AF0346C8
:101A0C003960FB7197F90730002B0ADB3B68DAB2BF
:101A1C000C4997F907301201D2B20B4483F800231A
:101A2C000AE03B68DAB20849FB7903F00F03043B88
:101A3C001201D2B20B441A7600BF0C37BD4680BCE3
:101A4C00704700BF00E100E000ED00E080B489B019
:101A5C0000AFF860B9607A60FB6803F00703FB61C4
:101A6C00FB69C3F10703042B28BF0423BB61FB698B
:101A7C000433062B02D9FB69033B00E000237B6196
:101A8C004FF0FF32BB6902FA03F3DA43BB681A402A
:101A9C007B699A404FF0FF317B6901FA03F3D9431C
:101AAC007B680B40134318462437BD4680BC7047F7
:101ABC0080B582B000AF78607B68013BB3F1807F6A
:101ACC0001D301230FE00A4A7B68013B53600F21CD
:101ADC004FF0FF30FFF790FF054B00229A60044B4C
:101AEC0007221A60002318460837BD4680BD00BF88
:101AFC0010E000E080B582B000AF78607868FFF746
:101B0C002DFF00BF0837BD4680BD80B586B000AF45
:101B1C000346B9607A60FB7300237B61FFF742FFD9
:101B2C0078617A68B9687869FFF790FF024697F98F
:101B3C000F3011461846FFF75FFF00BF1837BD4640
:101B4C0080BD80B582B000AF0346FB7197F90730BA
:101B5C001846FFF735FF00BF0837BD4680BD80B57E
:101B6C0082B000AF78607868FFF7A2FF0346184692
:101B7C000837BD4680BD000080B48BB000AF7860E4
:101B8C00396000237B6200233B6248E101227B6ABF
:101B9C0002FA03F3FB613B681B68FA691340BB61F3
:101BAC00BA69FB699A4240F037813B685B68A34A8B
:101BBC0093425ED0A14A934275D8A14A934258D021
:101BCC009F4A93426FD89F4A934252D09D4A934268
:101BDC0069D89D4A93424CD09B4A934263D89B4A06
:101BEC00934246D0994A93425DD8122B2AD8122B95
:101BFC0059D801A252F823F07F1C0008591C000888
:101C0C006B1C0008AD1C0008B31C0008B31C0008BA
:101C1C00B31C0008B31C0008B31C0008B31C00085C
:101C2C00B31C0008B31C0008B31C0008B31C00084C
:101C3C00B31C0008B31C0008B31C0008611C00088E
:101C4C00751C0008824A934213D02CE03B68DB6879
:101C5C003B6229E03B68DB6804333B6224E03B6871
:101C6C00DB6808333B621FE03B68DB680C333B628C
:101C7C001AE03B689B68002B02D104233B6213E003
:101C8C003B689B68012B05D108233B627B68FA6992
:101C9C001A6109E008233B627B68FA695A6103E028
:101CAC0000233B6200E000BFBB69FF2B01D87B68BF
:101CBC0001E07B6804337B61BB69FF2B02D87B6A34
:101CCC009B0002E07B6A083B9B003B617B691A68C6
:101CDC000F213B6901FA03F3DB431A40396A3B6974
:101CEC0001FA03F31A437B691A603B685B6803F0E3
:101CFC008053002B00F09080564B9B69554A43F063
:101D0C0001039361534B9B6903F00103BB60BB68F8
:101D1C00514A7B6A9B08023352F82330FB607B6A82
:101D2C0003F003039B000F2202FA03F3DB43FA6870
:101D3C001340FB607B68494A93420DD07B68484A4C
:101D4C00934207D07B68474A934201D1022304E0B7
:101D5C00032302E0012300E000237A6A02F003026D
:101D6C0092009340FA681343FB603B497B6A9B08E3
:101D7C000233FA6841F823203B685B6803F4801354
:101D8C00002B06D0384B9A683749BB6913438B60DC
:101D9C0006E0354B9A68BB69DB43334913408B60D3
:101DAC003B685B6803F40013002B06D02E4BDA68FB
:101DBC002D49BB691343CB6006E02B4BDA68BB693A
:101DCC00DB4329491340CB603B685B6803F4003369
:101DDC00002B06D0244B5A682349BB6913434B6034
:101DEC0006E0214B5A68BB69DB431F4913404B602B
:101DFC003B685B6803F48033002B06D01A4B1A68DF
:101E0C001949BB6913430B6006E0174B1A68BB6991
:101E1C00DB43154913400B607B6A01337B623B68E3
:101E2C001A687B6A22FA03F3002B7FF4AFAE00BF73
:101E3C0000BF2C37BD4680BC704700BF000032107D
:101E4C0000003110000022100000211000001210C0
:101E5C000000111000100240000001400008014079
:101E6C00000C0140001001400004014080B485B01A
:101E7C0000AF78600B467B807B689A687B88134048
:101E8C00002B02D00123FB7301E00023FB73FB7BCF
:101E9C0018461437BD4680BC704780B483B000AF81
:101EAC0078600B467B8013467B707B78002B03D0CD
:101EBC007A887B681A6103E07B881A047B681A6154
:101ECC0000BF0C37BD4680BC7047000080B586B0A3
:101EDC0000AF78607B68002B01D101236CE27B683A
:101EEC001B6803F00103002B00F08780924B5B68AA
:101EFC0003F00C03042B0CD08F4B5B6803F00C032A
:101F0C00082B12D18C4B5B6803F48033B3F5803F04
:101F1C000BD1894B1B6803F40033002B6CD07B680E
:101F2C005B68002B68D1012346E27B685B68B3F5E4
:101F3C00803F06D1804B1B687F4A43F4803313608B
:101F4C002EE07B685B68002B0CD17B4B1B687A4ABC
:101F5C0023F480331360784B1B68774A23F4802377
:101F6C0013601DE07B685B68B3F5A02F0CD1724B3E
:101F7C001B68714A43F4802313606F4B1B686E4AD5
:101F8C0043F4803313600BE06B4B1B686A4A23F4F9
:101F9C0080331360684B1B68674A23F480231360FB
:101FAC007B685B68002B13D0FFF7CEFC386108E030
:101FBC00FFF7CAFC02463B69D31A642B01D90323F1
:101FCC00FAE15D4B1B6803F40033002BF0D014E0F6
:101FDC00FFF7BAFC386108E0FFF7B6FC02463B6934
:101FEC00D31A642B01D90323E6E1534B1B6803F48A
:101FFC000033002BF0D100E000BF7B681B6803F0BE
:10200C000203002B63D04C4B5B6803F00C03002BDA
:10201C000BD0494B5B6803F00C03082B1CD1464BCF
:10202C005B6803F48033002B16D1434B1B6803F021
:10203C000203002B05D07B681B69012B01D0012307
:10204C00BAE13D4B1B6823F0F8027B685B69DB004F
:10205C00394913430B603AE07B681B69002B20D095
:10206C00364B01221A60FFF76FFC386108E0FFF76E
:10207C006BFC02463B69D31A022B01D903239BE16B
:10208C002D4B1B6803F00203002BF0D02A4B1B686E
:10209C0023F0F8027B685B69DB00274913430B6074
:1020AC0015E0264B00221A60FFF74EFC386108E061
:1020BC00FFF74AFC02463B69D31A022B01D90323D2
:1020CC007AE11D4B1B6803F00203002BF0D17B68F7
:1020DC001B6803F00803002B3AD07B689B69002B2C
:1020EC0019D0174B01221A60FFF72EFC386108E05B
:1020FC00FFF72AFC02463B69D31A022B01D90323B2
:10210C005AE10D4B5B6A03F00203002BF0D0012067
:10211C0000F09AFA1CE00A4B00221A60FFF714FC3C
:10212C0038610FE0FFF710FC02463B69D31A022B13
:10213C0008D9032340E100BF0010024000004242D6
:10214C00800442429E4B5B6A03F00203002BE9D1F0
:10215C007B681B6803F00403002B00F0A6800023AF
:10216C00FB75974BDB6903F08053002B0DD1944B1F
:10217C00DB69934A43F08053D361914BDB6903F0E5
:10218C008053BB60BB680123FB758E4B1B6803F44B
:10219C008073002B18D18B4B1B688A4A43F48073D5
:1021AC001360FFF7D1FB386108E0FFF7CDFB024667
:1021BC003B69D31A642B01D90323FDE0814B1B68C7
:1021CC0003F48073002BF0D07B68DB68012B06D105
:1021DC007B4B1B6A7A4A43F0010313622DE07B6848
:1021EC00DB68002B0CD1764B1B6A754A23F001037C
:1021FC001362734B1B6A724A23F0040313621CE0D4
:10220C007B68DB68052B0CD16D4B1B6A6C4A43F069
:10221C00040313626A4B1B6A694A43F0010313629D
:10222C000BE0674B1B6A664A23F001031362644B95
:10223C001B6A634A23F0040313627B68DB68002B80
:10224C0015D0FFF781FB38610AE0FFF77DFB0246F2
:10225C003B69D31A41F28832934201D90323ABE094
:10226C00574B1B6A03F00203002BEED014E0FFF770
:10227C006BFB38610AE0FFF767FB02463B69D31A38
:10228C0041F28832934201D9032395E04C4B1B6AEF
:10229C0003F00203002BEED1FB7D012B05D1484B43
:1022AC00DB69474A23F08053D3617B68DB69002BE1
:1022BC0000F08180424B5B6803F00C03082B61D06B
:1022CC007B68DB69022B46D13F4B00221A60FFF77B
:1022DC003BFB386108E0FFF737FB02463B69D31A3A
:1022EC00022B01D9032367E0354B1B6803F0007305
:1022FC00002BF0D17B681B6AB3F5803F08D1304BC3
:10230C005B6823F400327B689B682D4913434B6058
:10231C002B4B5B6823F474127B68196A7B685B6ACD
:10232C000B43274913434B60274B01221A60FFF7DD
:10233C000BFB386108E0FFF707FB02463B69D31A39
:10234C00022B01D9032337E01D4B1B6803F00073EC
:10235C00002BF0D02FE01C4B00221A60FFF7F4FA90
:10236C00386108E0FFF7F0FA02463B69D31A022BFA
:10237C0001D9032320E0124B1B6803F00073002BE0
:10238C00F0D118E07B68DB69012B01D1012313E04C
:10239C000B4B5B68FB60FB6803F480327B681B6A49
:1023AC009A4206D1FB6803F470127B685B6A9A420E
:1023BC0001D0012300E0002318461837BD4680BD2C
:1023CC0000100240007000406000424280B584B0B2
:1023DC0000AF786039607B68002B01D10123D0E01D
:1023EC006A4B1B6803F007033A689A4210D9674B93
:1023FC001B6823F0070265493B6813430B60634B72
:10240C001B6803F007033A689A4201D00123B8E035
:10241C007B681B6803F00203002B20D07B681B68D1
:10242C0003F00403002B05D0594B5B68584A43F466
:10243C00E06353607B681B6803F00803002B05D036
:10244C00534B5B68524A43F460535360504B5B6888
:10245C0023F0F0027B689B684D4913434B607B680B
:10246C001B6803F00103002B40D07B685B68012BD9
:10247C0007D1474B1B6803F40033002B15D1012304
:10248C007FE07B685B68022B07D1414B1B6803F034
:10249C000073002B09D1012373E03D4B1B6803F043
:1024AC000203002B01D101236BE0394B5B6823F055
:1024BC0003027B685B68364913434B60FFF744FAB1
:1024CC00F8600AE0FFF740FA0246FB68D31A41F2C3
:1024DC008832934201D9032353E02D4B5B6803F000
:1024EC000C027B685B689B009A42EBD1274B1B6804
:1024FC0003F007033A689A4210D2244B1B6823F06E
:10250C00070222493B6813430B60204B1B6803F006
:10251C0007033A689A4201D0012332E07B681B68BA
:10252C0003F00403002B08D0194B5B6823F4E06222
:10253C007B68DB68164913434B607B681B6803F0B0
:10254C000803002B09D0124B5B6823F460527B68A4
:10255C001B69DB000E4913434B6000F021F8024667
:10256C000B4B5B681B0903F00F030A49CB5C22FA87
:10257C0003F3094A1360094B1B681846FFF7A2F9CD
:10258C00002318461037BD4680BD00BF0020024016
:10259C0000100240D02E0008480000204C00002003
:1025AC0080B487B000AF0023FB600023BB60002326
:1025BC007B6100237B6000233B611E4B5B68FB60EF
:1025CC00FB6803F00C03042B02D0082B03D027E08C
:1025DC00194B3B6127E0FB689B0C03F00F03174A78
:1025EC00D35C7B60FB6803F48033002B10D0114B61
:1025FC005B685B0C03F00103114AD35CBB607B6826
:10260C000D4A02FB03F2BB68B2FBF3F37B6104E0FF
:10261C007B680C4A02FB03F37B617B693B6102E044
:10262C00054B3B6100BF3B6918461C37BD4680BC5F
:10263C00704700BF0010024000127A00E02E000824
:10264C00F02E000800093D0080B485B000AF786022
:10265C000A4B1B680A4AA2FB03235B0A7A6802FB3B
:10266C0003F3FB6000BFFB685A1EFA60002BF9D124
:10267C0000BF00BF1437BD4680BC70474800002027
:10268C00D34D621080B582B000AF78607B68002BB0
:10269C0001D1012341E07B6893F83D30DBB2002B84
:1026AC0006D17B68002283F83C207868FFF772F82B
:1026BC007B68022283F83D207B681A687B680433B0
:1026CC001946104600F06EFA7B68012283F846200A
:1026DC007B68012283F83E207B68012283F83F202F
:1026EC007B68012283F840207B68012283F841201B
:1026FC007B68012283F842207B68012283F8432007
:10270C007B68012283F844207B68012283F84520F2
:10271C007B68012283F83D20002318460837BD460C
:10272C0080BD000080B485B000AF78607B6893F802
:10273C003D30DBB2012B01D0012335E07B68022256
:10274C0083F83D207B681B68DA687B681B6842F065
:10275C000102DA607B681B68164A934209D07B68D9
:10276C001B68B3F1804F04D07B681B68124A9342FC
:10277C0011D17B681B689B6803F00703FB60FB6847
:10278C00062B10D07B681B681A687B681B6842F0AC
:10279C0001021A6007E07B681B681A687B681B687B
:1027AC0042F001021A60002318461437BD4680BC63
:1027BC00704700BF002C01400004004080B582B07F
:1027CC0000AF78607B681B681B6903F00203022B67
:1027DC0022D17B681B68DB6803F00203022B1BD140
:1027EC007B681B686FF002021A617B6801221A7702
:1027FC007B681B689B6903F00303002B03D078688C
:10280C0000F0B4F905E0786800F0A7F9786800F0FA
:10281C00B6F97B6800221A777B681B681B6903F08A
:10282C000403042B22D17B681B68DB6803F00403D0
:10283C00042B1BD17B681B686FF004021A617B6848
:10284C0002221A777B681B689B6903F44073002B88
:10285C0003D0786800F08AF905E0786800F07DF91B
:10286C00786800F08CF97B6800221A777B681B680B
:10287C001B6903F00803082B22D17B681B68DB68FB
:10288C0003F00803082B1BD17B681B686FF0080250
:10289C001A617B6804221A777B681B68DB6903F07A
:1028AC000303002B03D0786800F060F905E078682A
:1028BC0000F053F9786800F062F97B6800221A770F
:1028CC007B681B681B6903F01003102B22D17B68FB
:1028DC001B68DB6803F01003102B1BD17B681B6893
:1028EC006FF010021A617B6808221A777B681B68EC
:1028FC00DB6903F44073002B03D0786800F036F9E1
:10290C0005E0786800F029F9786800F038F97B6800
:10291C0000221A777B681B681B6903F00103012BEB
:10292C000ED17B681B68DB6803F00103012B07D118
:10293C007B681B686FF001021A617868FEF7D8FD9E
:10294C007B681B681B6903F08003802B0ED17B68AE
:10295C001B68DB6803F08003802B07D17B681B6846
:10296C006FF080021A61786800F06BFA7B681B6864
:10297C001B6903F04003402B0ED17B681B68DB689E
:10298C0003F04003402B07D17B681B686FF04002BB
:10299C001A61786800F0FCF87B681B681B6903F00F
:1029AC002003202B0ED17B681B68DB6803F020030F
:1029BC00202B07D17B681B686FF020021A617868A6
:1029CC0000F036FA00BF0837BD4680BD80B584B034
:1029DC0000AF786039600023FB737B6893F83C3060
:1029EC00012B01D10223B4E07B68012283F83C2047
:1029FC007B68022283F83D207B681B689B68BB6068
:102A0C00BB6823F07703BB60BB6823F47F43BB60D8
:102A1C007B681B68BA689A603B681B68B3F5005FFB
:102A2C003ED0B3F5005F00F28780B3F5805F00F015
:102A3C008680B3F5805F7FD8702B1AD0702B7BD833
:102A4C00602B50D0602B77D8502B3CD0502B73D8A8
:102A5C00402B58D0402B6FD8302B64D0302B6BD8F8
:102A6C00202B60D0202B67D8002B5CD0102B5AD099
:102A7C0062E07B6818683B6899683B685A683B68F9
:102A8C00DB6800F05EF97B681B689B68BB60BB6809
:102A9C0043F07703BB607B681B68BA689A604FE0B1
:102AAC007B6818683B6899683B685A683B68DB68C8
:102ABC0000F047F97B681B689A687B681B6842F4D6
:102ACC0080429A603CE07B6818683B6859683B68B8
:102ADC00DB681A4600F0BEF87B681B68502118466C
:102AEC0000F015F92CE07B6818683B6859683B6866
:102AFC00DB681A4600F0DCF87B681B68602118461E
:102B0C0000F005F91CE07B6818683B6859683B6865
:102B1C00DB681A4600F09EF87B681B68402118465B
:102B2C0000F0F5F80CE07B681A683B681B681946E6
:102B3C00104600F0ECF803E00123FB7300E000BF4B
:102B4C007B68012283F83D207B68002283F83C20BF
:102B5C00FB7B18461037BD4680BD80B483B000AFF8
:102B6C00786000BF0C37BD4680BC704780B483B022
:102B7C0000AF786000BF0C37BD4680BC704780B496
:102B8C0083B000AF786000BF0C37BD4680BC704787
:102B9C0080B483B000AF786000BF0C37BD4680BCFA
:102BAC007047000080B485B000AF786039607B68F6
:102BBC001B68FB607B68254A934207D07B68B3F1A6
:102BCC00804F03D07B68224A934208D1FB6823F0E4
:102BDC007003FB603B685B68FA681343FB607B68BF
:102BEC001A4A934207D07B68B3F1804F03D07B68BD
:102BFC00174A934208D1FB6823F44073FB603B688F
:102C0C00DB68FA681343FB60FB6823F080023B68C7
:102C1C005B691343FB607B68FA681A603B689A68CF
:102C2C007B68DA623B681A687B689A627B68074A41
:102C3C00934203D13B681A697B681A637B68012253
:102C4C005A6100BF1437BD4680BC7047002C014050
:102C5C000004004080B487B000AFF860B9607A60BF
:102C6C00FB681B6A7B61FB681B6A23F00102FB6833
:102C7C001A62FB689B693B613B6923F0F0033B6183
:102C8C007B681B013A6913433B617B6923F00A03A0
:102C9C007B617A69BB6813437B61FB683A699A6113
:102CAC00FB687A691A6200BF1C37BD4680BC70474E
:102CBC0080B487B000AFF860B9607A60FB681B6ABB
:102CCC007B61FB681B6A23F01002FB681A62FB68CD
:102CDC009B693B613B6923F470433B617B681B033D
:102CEC003A6913433B617B6923F0A0037B61BB68AA
:102CFC001B017A6913437B61FB683A699A61FB6833
:102D0C007A691A6200BF1C37BD4680BC704780B41C
:102D1C0085B000AF786039607B689B68FB60FB68AE
:102D2C0023F07003FB603A68FB68134343F007031E
:102D3C00FB607B68FA689A6000BF1437BD4680BCA4
:102D4C00704780B487B000AFF860B9607A603B60C0
:102D5C00FB689B687B617B6923F47F437B613B68E9
:102D6C001A027B681A43BB6813437A6913437B616D
:102D7C00FB687A699A6000BF1C37BD4680BC7047FF
:102D8C0080B485B000AF786039607B6893F83C30D4
:102D9C00012B01D1022341E07B68012283F83C2006
:102DAC007B68022283F83D207B681B685B68FB60B4
:102DBC007B681B689B68BB60FB6823F07003FB603F
:102DCC003B681B68FA681343FB607B681B68FA68F6
:102DDC005A607B681B68144A934209D07B681B6855
:102DEC00B3F1804F04D07B681B68104A93420CD11E
:102DFC00BB6823F08003BB603B685B68BA68134315
:102E0C00BB607B681B68BA689A607B68012283F898
:102E1C003D207B68002283F83C20002318461437A1
:102E2C00BD4680BC704700BF002C01400004004030
:102E3C0080B483B000AF786000BF0C37BD4680BC57
:102E4C00704780B483B000AF786000BF0C37BD46CC
:102E5C0080BC704770B500260C4D0D4C641BA41043
:102E6C00A64209D100F022F800260A4D0A4C641B38
:102E7C00A410A64205D170BD55F8043B9847013605
:102E8C00EEE755F8043B98470136F2E7F42E0008BC
:102E9C00F42E0008F42E0008F82E00080346024415
:102EAC00934200D1704703F8011BF9E7F8B500BF56
:102EBC00F8BC08BC9E467047F8B500BFF8BC08BC0F
:042ECC009E46704767
:102ED00000000000000000000102030406070809CA
:102EE00002030405060708090A0B0C0D0E0F10104B
:042EF00001020000DB
:042EF40031010008A0
:042EF8000D010008C0
:102EFC0001000000010000000100000001000000C2
:102F0C00F4010000010000000100000001000000BD
:102F1C0001000000F40100000100000001000000AD
:102F2C000100000001000000F4010000030000009B
:102F3C0005000000020000000024F4001000000056
:042F4C000100000080
:04000005080018597E
:00000001FF
